:100000000C9446000C9465000C9465000C946500FB
:100010000C9465000C9465000C9465000C946500CC
:100020000C9465000C9465000C9465000C946500BC
:100030000C9465000C94A0000C9465000C94650071
:100040000C9465000C9465000C9465000C9465009C
:100050000C9465000C9465000C9465000C9465008C
:100060000C9465000C9465000C9465000C9465007C
:100070000C9465000C9465000C9465000C9465006C
:100080000C9465000C9465000C94650011241FBE4F
:10009000CFEFD0E4DEBFCDBF11E0A0E0B1E0E0E9FA
:1000A000F2E000E00BBF02C007900D92A431B1074F
:1000B000D9F721E0A4E1B1E001C01D92AE31B20751
:1000C000E1F70E942B010C9446010C940000CF93A1
:1000D000C82F8A3019F48DE00E9467008091C0001B
:1000E00085FFFCCFC093C60080E090E0CF910895DB
:1000F0008BE0809381008DE790E09093890080935E
:10010000880082E080936F00109285001092840036
:100110008091100190911101A0911201B0911301F1
:100120008093140190931501A0931601B0931701C9
:100130008FB780688FBF089581E08093180108957C
:100140001F920F920FB60F9211240BB60F922F939E
:100150003F934F935F936F937F938F939F93AF934F
:10016000BF93EF93FF938091140190911501A0919B
:100170001601B09117010197A109B10980931401EB
:1001800090931501A0931601B0931701892B8A2B28
:100190008B2B91F40E949C00809110019091110191
:1001A000A0911201B0911301809314019093150155
:1001B000A0931601B0931701FF91EF91BF91AF91FA
:1001C0009F918F917F916F915F914F913F912F916F
:1001D0000F900BBE0F900FBE0F901F90189560935D
:1001E0001001709311018093120190931301609399
:1001F00014017093150180931601909317010895CF
:1002000080911B0190911C01009719F0019759F002
:10021000089581E080931D0181E090E090931C019E
:1002200080931B01089580910001909101019695A2
:10023000879521E04091190150911A0148175907FB
:1002400008F420E020931D010895EAE7F0E08081A2
:10025000806E8083089511B88FEF82B984B915B884
:100260008AB91BB810921C0110921B010E94250133
:10027000809178009091790090931A0180931901F0
:100280000E94000180911D0185B9F2CFF894FFCF43
:10029000FF000000000200000000670000000000F6
:0402A0000100000059
:00000001FF
