:100000000C9446000C9465000C9465000C946500FB
:100010000C9465000C9465000C9465000C946500CC
:100020000C9465000C9465000C9465000C946500BC
:100030000C9465000C94A0000C9465000C94650071
:100040000C9465000C9465000C9465000C9465009C
:100050000C9465000C9465000C9465000C9465008C
:100060000C9465000C9465000C9465000C9465007C
:100070000C9465000C9465000C9465000C9465006C
:100080000C9465000C9465000C94650011241FBE4F
:10009000CFEFD0E4DEBFCDBF11E0A0E0B1E0E8EDEE
:1000A000F3E000E00BBF02C007900D92A431B1074E
:1000B000D9F721E0A4E1B1E001C01D92A632B20758
:1000C000E1F70E94A8010C94EA010C940000CF9380
:1000D000C82F8A3019F48DE00E9467008091C0001B
:1000E00085FFFCCFC093C60080E090E0CF910895DB
:1000F0008BE0809381008DE790E09093890080935E
:10010000880082E080936F00109285001092840036
:100110008091100190911101A0911201B0911301F1
:100120008093140190931501A0931601B0931701C9
:100130008FB780688FBF089581E08093180108957C
:100140001F920F920FB60F9211240BB60F922F939E
:100150003F934F935F936F937F938F939F93AF934F
:10016000BF93EF93FF938091140190911501A0919B
:100170001601B09117010197A109B10980931401EB
:1001800090931501A0931601B0931701892B8A2B28
:100190008B2B91F40E949C00809110019091110191
:1001A000A0911201B0911301809314019093150155
:1001B000A0931601B0931701FF91EF91BF91AF91FA
:1001C0009F918F917F916F915F914F913F912F916F
:1001D0000F900BBE0F900FBE0F901F90189560935D
:1001E0001001709311018093120190931301609399
:1001F00014017093150180931601909317010895CF
:1002000080911C0190911D01009719F0019751F008
:1002100008951092220181E090E090931D01809357
:100220001C0108958091000190910101BC01769517
:100230006795769567957695679520911901309128
:100240001A0141E02617370708F440E040931F01E8
:10025000AC01440F551F56954795569547955695B1
:10026000479561E02417350708F460E060931B01AF
:10027000AC01440F551F480F591F56954795569589
:1002800047955695479561E02417350708F460E0D7
:1002900060932501AC01440F551F440F551F56951F
:1002A0004795569547955695479561E0241735072C
:1002B00008F460E060932101AC01440F551F440F26
:1002C000551F480F591F5695479556954795569572
:1002D000479561E02417350708F460E06093240136
:1002E000AC01440F551F480F591F440F551F569519
:1002F0004795569547955695479561E024173507DC
:1003000008F460E060932301AC01440F551F440FD3
:10031000551F440F551F481B590B56954795569529
:1003200047955695479561E02417350708F460E036
:100330006093200141E02817390708F440E040931A
:100340001E010895EAE7F0E08081806E80830895C1
:1003500011B88FEF82B984B915B80E94A20110922A
:100360001D0110921C01809178009091790090936A
:100370001A01809319010E94000180911B01880FCE
:1003800090911F01890F90912501990F990F890F65
:1003900090912101990F990F990F890F9091240144
:1003A00020E1929F800D11249091230120E2929FE1
:1003B000800D11249091200120E4929F800D112442
:1003C00090911E01979599279795890F8093220107
:0803D00085B9C9CFF894FFCFF5
:1003D800FF000000000200000000670000000000AD
:0403E8000100000010
:00000001FF
