:100000000C9446000C9465000C9465000C946500FB
:100010000C9465000C9465000C9465000C946500CC
:100020000C9465000C9465000C9465000C946500BC
:100030000C9465000C94A0000C9465000C94650071
:100040000C9465000C9465000C9465000C9465009C
:100050000C9465000C9465000C9465000C9465008C
:100060000C9465000C9465000C9465000C9465007C
:100070000C9465000C9465000C9465000C9465006C
:100080000C9465000C9465000C94650011241FBE4F
:10009000CFEFD0E4DEBFCDBF11E0A0E0B1E0E4E4FB
:1000A000F2E000E00BBF02C007900D92A231B10751
:1000B000D9F721E0A2E1B1E001C01D92AB31B20756
:1000C000E1F70E9406010C9420010C940000CF93EC
:1000D000C82F8A3019F48DE00E9467008091C0001B
:1000E00085FFFCCFC093C60080E090E0CF910895DB
:1000F0008BE0809381008DE790E09093890080935E
:10010000880082E080936F00109285001092840036
:1001100080910E0190910F01A0911001B0911101F9
:100120008093120190931301A0931401B0931501D1
:100130008FB780688FBF089581E08093160108957E
:100140001F920F920FB60F9211240BB60F922F939E
:100150003F934F935F936F937F938F939F93AF934F
:10016000BF93EF93FF938091120190911301A0919F
:100170001401B09115010197A109B10980931201F1
:1001800090931301A0931401B0931501892B8A2B2E
:100190008B2B91F40E949C0080910E0190910F0195
:1001A000A0911001B091110180931201909313015D
:1001B000A0931401B0931501FF91EF91BF91AF91FE
:1001C0009F918F917F916F915F914F913F912F916F
:1001D0000F900BBE0F900FBE0F901F90189560935D
:1001E0000E0170930F0180931001909311016093A1
:1001F00012017093130180931401909315010895D7
:10020000EAE7F0E08081806E8083089511B88FEF77
:1002100082B984B915B88AB91BB80E9400018091CF
:100220007800909179009093190180931801809340
:10023000170190931A0185B980911A018BB9EFCFFC
:04024000F894FFCF60
:100244000000000200000000670000000000010040
:020254000000A8
:00000001FF
